:020000040000FA
:040000000000822951
:040004000034003490
:0800080020008D1CEE288D1074
:10001000711832283208B106B2090E083306B2054B
:10002000B105FF3A31043204FF3AB400B306341C80
:10003000252833182528B501B601B7017608F40044
:100040007708F5000130AA003228341C3228331C0E
:100050003228B501B601B7017608F4007708F5003B
:100060000530AA002A080B007E283A283C283E28A2
:10007000B8284028383041283B3041283E304128BC
:100080004130860087011600B7071600B63D1600FE
:10009000B53D031C7628B501B601B701AA0A8C1E2E
:1000A00057282A08023A031D5728AA0A76282A0840
:1000B000F11C7328043A031D6328AA0A7608F40089
:1000C0007708F5007628023A031D762833186C2845
:1000D00071186C28AA0176280130AA007608F4006D
:1000E0007708F5007628063A0319AA012A080B00BA
:1000F0007E2881289C28A028B828BC28F601F70172
:10010000D8287409A6007509A7003508A400360888
:10011000A5008C1D9428870135358600870D003099
:1001200086078630873D4C21EF2075082907F700A8
:100130007408283DF600D828FF30F600F700D828CC
:100140002D09A600A7003508A4003608A5008C1DBF
:10015000B228870135358600870D02308607883042
:10016000873D4C21EF202809F6002909F700D828FF
:100170002D08F600F700D8287408A6007508A70017
:100180003508A4003608A5008C1DCF288701353519
:100190008600870D023086078830873D4C21EF208E
:1001A00075092907F7007409283DF600F609F709D3
:1001B00000303038F80020008D12000023009A1320
:1001C000160876080F3978049600191CE5281608D9
:1001D00077089600191CEA2820008D160900A8014E
:1001E000A9010310271FF8282508A9072408A83DFE
:1001F000A80CA90C0310A71F01292508A90724088A
:10020000A83DA80CA90C0310261C0A292508A9073B
:100210002408A83DA80CA90C0310A61C1329250826
:10022000A9072408A83DA80CA90C0310261D1C2909
:100230002508A9072408A83DA80CA90C0310A61D91
:1002400025292508A9072408A83DA80CA90C0310F6
:10025000261E2E292508A9072408A83DA80CA90CAC
:100260000310A61E37292508A9072408A83DA80CB5
:10027000A90C0310261F40292508A9072408A83D1A
:10028000A80CA90C0310A61F49292508A9072408B2
:10029000A83DA80CA90C08001600A100A500160096
:1002A000A000A4001600A3001600A2002108B61AA0
:1002B0002308A5072008B61A2208A43DA40CA50C03
:1002C0002108361B2308A5072008361B2208A43D59
:1002D000A40CA50C2108B61B2308A5072008B61BF3
:1002E0002208A43DA40CA50C080021009300323084
:1002F000F000F00BFE3313141318FE330D08F30057
:10030000200008002100532204228B170B1797149A
:1003100020000130900030308E001F308D00210011
:100320000130930060309400200085018701AB010B
:10033000AC01AD01AE017F30AC007F30AD003F308D
:10034000AE00AF01B001AA01B701B601B501B80115
:10035000B901BA01BE01BF01C001C101C201C3019F
:10036000A030BB00BC000130BD00F601F701073032
:10037000F200F401F501B101B201B301B4012000B2
:100380008E17F20A720807390730F200C1290130CE
:100390007521AB002F082B02031C00308400833032
:1003A00085000008BA00850A0008B900850A00081F
:1003B000B800C12909307521AC002F082C02031C9C
:1003C00000308400833085000008C000850A0008E2
:1003D000BF00850A0008BE00C12912307521AD009A
:1003E000C12913307521AE002F082E02031C0030E6
:1003F0008400833085000008C300850A0008C2001D
:10040000850A0008C100C1291D307521AF00AF3633
:10041000C1290D307521C03930060319C12973086F
:10042000C039B000B01B192A301B192AF110711005
:10043000C129B01F292A301F292AF1147114B501CE
:10044000B601B7017608F4007708F5000130AA007C
:10045000C129F11471102A08043A031DC129760834
:0C046000F4007708F5000530AA00C1295F
:100600000B340A340A340934083408340734073404
:10061000073406340634053405340534053404340F
:10062000043404340434043403340334033403340E
:100630000334033403340234023402340234023407
:1006400002340234023402340234013401340134FD
:1006500001340134013401340134013401340134F2
:1006600001340134013401340134013401340134E2
:1006700000340034003400340034003400340034DA
:1006800000340034003400340034003400340034CA
:1006900000340034003400340034003400340034BA
:1006A00000340034003400340034003400340034AA
:1006B000003400340034003400340034003400349A
:1006C000003400340034003400340034003400348A
:1006D000003400340034003400340034003400347A
:1006E000003400340034003400340034003400346A
:1006F000003400340034003400340034003400345A
:100700000034003400340034003400340034003449
:100710000034003400340034003400340034003439
:100720000034003400340034003400340034003429
:100730000034003400340034003400340034003419
:100740000034003400340034003400340034003409
:1007500000340034003400340034003400340034F9
:1007600000340034003400340034003400340034E9
:1007700000340034003400340034003400340034D9
:1007800000340034003400340034003400340034C9
:1007900000340034003400340034003400340034B9
:1007A00000340034003400340034003400340034A9
:1007B0000034003400340034003400340034003499
:1007C0000034003400340034003400340034003489
:1007D0000034003400340034003400340034003479
:1007E0000034003400340034003400340034003469
:1007F0000034003400340034003400340034003459
:10080000B334E13426347E34E7345E34E234703479
:100810000834A8345034FE34B2346B342934EB3409
:10082000B2347B3448341834EB34C03498347234E6
:100830004D342B340A34EB34CE34B23497347D3417
:1008400065344D34373422340D34FA34E734D5343A
:10085000C434B334A3349434853477346A345D3487
:100860005034443439342D34233418340E340534A0
:10087000FC34F334EA34E234DA34D234CB34C434E2
:10088000BD34B634B034AA34A4349E34983493348E
:100890008E348934843480347B34773473346F34C9
:1008A0006B346734633460345C34593456345334B5
:1008B00050344D344B3448344534433441343E3461
:1008C0003C343A34383436343434323430342F34DF
:1008D0002D342B342A34283427342634243423343A
:1008E000223420341F341E341D341C341B341A347B
:1008F00019341834173416341634153414341334A8
:100900001334123411341134103410340F340E34C3
:100910000E340D340D340C340C340B340B340B34D6
:100920000A340A340A3409340934083408340834DF
:1009300008340734073407340634063406340634E2
:1009400006340534053405340534053404340434E0
:1009500004340434043404340334033403340334DB
:1009600003340334033403340234023402340234D3
:1009700002340234023402340234023402340134C8
:1009800001340134013401340134013401340134BF
:1009900001340134013401340134013401340134AF
:1009A00001340134003400340034003400340034A5
:1009B0000034003400340034003400340034003497
:1009C0000034003400340034003400340034003487
:1009D0000034003400340034003400340034003477
:1009E0000034003400340034003400340034003467
:1009F0000034003400340034003400340034003457
:100A0000EE349E346D34C034B434F1348934E73478
:100A1000B534D63457346A345D3498349534E03480
:100A20001534D934DE34DE349B34DE34753432345C
:100A3000EF348634D734C334303405342B348D341A
:100A40001834BB34663409349734033441344634A3
:100A500008347D349D345E34BA34A93423342434CC
:100A6000A3349D340B34E8343034DE34EE345B345C
:100A700022343F34AF346E347A34CF346A3448345D
:100A80006834C6346134353442348434F934A134A2
:100A900078347E34B1340E349534443419341334FC
:100AA00032347334D5345734F934B83495348D3402
:100AB000A034CD3414347234E83475341734CF3460
:100AC0009A347A346C3470348734AE34E6342D344E
:100AD0008434EA345E34E0346F340B34B334683435
:100AE0002834F334C934AA349434893486348D34A8
:100AF0009D34B434D434FC342C346334A134E53420
:100B000031348234DA3438349B3404347334E63488
:100B10005F34DC345E34E4346E34FD349034273496
:100B2000C1345F340034A5344D34F834A63457341E
:100B30000B34C2347B343734F534B53478343D3437
:100B40000434CD349834653433340434D634AA3480
:100B50007F3456342E340834E334BF349D347C342F
:100B60005C343D3420340334E734CD34B3349A3428
:100B700083346C34553440342B3417340434F23419
:100B8000E034CF34BE34AE349F3490348234743485
:100B900066345A344D34413436342B3420341634D0
:100BA0000C340234F934F034E734DF34D734CF3442
:100BB000C834C134BA34B334AD34A734A1349B340F
:100BC000953490348B34863481347C347834743466
:100BD0006F346B346834643460345D345A34563462
:100BE000533450344D344B3448344534433440341A
:100BF0003E343C343A34383436343434323430349D
:100C000000340034E7340134CA340334AB340534DF
:100C10008A340734653409343E340B3414340D34CB
:100C2000E8340E34B9341034873412345234143466
:100C30001B341634E1341734A534193466341B34AC
:100C400025341D34E1341E349A3420345134223496
:100C500006342434B7342534673427341434293423
:100C6000BE342A3466342C340C342E34AF342F3452
:100C700050343134EF3432348B3434342534363418
:100C8000BC34373451343934E4343A3474343C3479
:100C900003343E348F343F3418344134A03442346A
:100CA00025344434A834453429344734A7344834EF
:100CB00023344A349E344B3416344D348C344E3401
:100CC000FF344F3471345134E03452344E345434A0
:100CD000B9345534223457348A345834EF345934C3
:100CE00052345B34B3345C3412345E346F345F346A
:100CF000CA346034233462347A346334CF34643495
:100D00002334663474346734C334683411346A3439
:100D10005C346B34A6346C34EE346D3433346F345D
:100D200077347034BA347134FA34723438347434F9
:100D300075347534B0347634E9347734203479340A
:100D400056347A3489347B34BB347C34EC347D348F
:100D50001A347F3447348034723481349B34823483
:100D6000C3348334E93484340D34863430348734E6
:100D700051348834703489348D348A34A9348B34B6
:100D8000C4348C34DD348D34F4348E3409349034EE
:100D90001D3491343034923441349334503494348B
:100DA0005E3495346A349634753497347E3498348E
:100DB000853499348B349A3490349B3493349C34F6
:100DC00095349D3495349E3494349F349134A034BA
:100DD0008D34A1348734A2348034A3347834A434DD
:100DE0006E34A5346334A6345634A7344834A8345A
:100DF0003834A9342834AA341534AB340234AC3432
:100E0000ED34AC34D734AD34BF34AE34A634AF3463
:100E10008C34B0347034B1345434B2343534B334E7
:100E20001634B434F534B434D334B534B034B634C1
:100E30008B34B7346634B8343F34B9341634BA34EA
:100E4000ED34BA34C234BB349634BC346934BD3466
:100E50003B34BE340B34BF34DA34BF34A934C0342D
:100E60007534C1344134C2340C34C334D534C33442
:100E70009D34C4346534C5342A34C634EF34C634A2
:100E8000B334C7347634C8343734C934F834C93449
:100E9000B734CA347534CB343234CC34EE34CC3439
:100EA000A934CD346334CE341C34CF34D434CF346D
:100EB0008A34D0344034D134F534D134A834D234E7
:100EC0005B34D3340C34D434BD34D4346C34D534A2
:100ED0001B34D634C934D6347534D7342134D8349D
:100EE000CB34D8347534D9341E34DA34C534DA34DA
:100EF0006C34DB341234DC34B734DC345A34DD3453
:100F0000FD34DD349F34DE344034DF34E134DF340B
:100F10008034E0341E34E134BC34E1345834E234FB
:100F2000F434E2348F34E3342834E434C134E43428
:100F30005A34E534F134E5348734E6341D34E7348B
:100F4000B134E7344534E834D834E8346A34E93429
:100F5000FC34E9348C34EA341C34EB34AB34EB34F9
:100F60003934EC34C634EC345234ED34DE34ED3400
:100F70006934EE34F334EE347C34EF340434F0343A
:100F80008C34F0341334F1349934F1341E34F234A7
:100F9000A334F2342734F334AA34F3342C34F43445
:100FA000AE34F4342F34F534AF34F5342E34F63413
:100FB000AD34F6342B34F734A834F7342434F83411
:100FC000A034F8341B34F9349534F9340F34FA343E
:100FD0008834FA340034FB347834FB34EF34FB3497
:100FE0006534FC34DB34FC345034FD34C434FD341B
:100FF0003734FE34AA34FE341C34FF348E34FF34CC
:10100000FF34FF34003400342D34033451340634BB
:101010006C3409347D340C3484340F34833412340A
:10102000783415346534183449341B3424341E3470
:10103000F6342034C0342334813426343A3429340D
:10104000EB342B3493342E3434343134CC343334C5
:101050005D343634E634383467343B34E1343D347F
:1010600053344034BE344234213445347E34473422
:10107000D334493421344C3468344E34A834503499
:10108000E2345234143455344034573466345934CD
:1010900085345B349D345D34AF345F34BB346134AC
:1010A000C1346334C1346534BA346734AE3469341E
:1010B0009B346B3483346D3465346F344234713413
:1010C00018347334EA347434B53476347B34783479
:1010D0003C347A34F8347B34AE347D345F347F343E
:1010E0000B348134B234823454348434F134853452
:1010F000893487341D348934AB348A3435348C34A4
:10110000BA348D343B348F34B73490342E34923427
:10111000A1349334103495347A349634E0349734CF
:1011200042349934A0349A34FA349B344F349D3489
:10113000A0349E34EE349F343734A1347D34A2344D
:10114000BF34A334FD34A4343734A6346D34A7340B
:10115000A034A834CF34A934FB34AA342334AC34BB
:101160004734AD346834AE348634AF34A034B03450
:10117000B734B134CB34B234DB34B334E834B434C0
:10118000F234B534F934B634FD34B734FE34B834FF
:10119000FB34B934F634BA34EE34BB34E234BC3404
:1011A000D434BD34C334BE34AF34BF349934C034C6
:1011B0007F34C1346334C2344434C3342334C4343C
:1011C000FF34C434D834C534AF34C6348334C73460
:1011D0005534C8342434C934F134C934BB34CA3426
:1011E0008334CB344934CC340C34CD34CD34CD3489
:1011F0008B34CE344834CF340234D034BA34D03483
:101200007034D1342334D234D534D2348434D3340A
:101210003234D434DD34D4348634D5342E34D63418
:10122000D334D6347634D7341834D834B734D834A9
:101230005534D934F034D9348A34DA342234DB34B6
:10124000B934DB344D34DC34E034DC347134DD3437
:101250000034DE348E34DE341A34DF34A434DF3428
:101260002D34E034B434E0343934E134BD34E13485
:101270004034E234C034E2344034E334BD34E33447
:101280003A34E434B434E4342E34E534A634E5346A
:101290001C34E6349134E6340534E7347734E734EB
:1012A000E834E7345834E834C634E8343334E934C5
:1012B0009F34E9340934EA347334EA34DA34EA34F2
:1012C0004134EB34A734EB340B34EC346E34EC346F
:1012D000D034EC343134ED349134ED34EF34ED343A
:1012E0004C34EE34A934EE340434EF345E34EF344D
:1012F000B734EF340F34F0346634F034BC34F034A7
:101300001134F1346534F134B834F1340A34F23440
:101310005B34F234AB34F234FA34F2344834F3341C
:101320009534F334E234F3342D34F4347734F43434
:10133000C134F4340A34F5345234F5349934F53484
:10134000DF34F5342434F6346934F634AD34F6340D
:10135000F034F6343234F7347334F734B434F734C9
:10136000F434F7343334F8347134F834AF34F834B7
:10137000EC34F8342834F9346334F9349E34F934D5
:10138000D834F9341134FA344A34FA348234FA3421
:10139000B934FA34F034FA342634FB345B34FB3499
:1013A0009034FB34C434FB34F834FB342B34FC3439
:1013B0005D34FC348F34FC34C034FC34F134FC3400
:1013C0002134FD345034FD347F34FD34AD34FD34EC
:1013D000DB34FD340834FE343534FE346134FE34FD
:1013E0008D34FE34B834FE34E234FE340C34FF3431
:1013F0003634FF345F34FF348834FF34B034FF3484
:10140000D834FF34FF34FF34200096012030970099
:101410009801FF30910092011F3093003E0004308C
:10142000CE000030C300FF30B800E501E030C4005A
:10143000B901CF01BA01C501D0010B088039F9000B
:101440000B087F398B003D0055308F00AA308F008C
:101450008F011330C6001430C5003E001530A300C4
:101460001430A4003D001230C9000E30C8000E3008
:10147000CA003E0017309F0016309E003D005530D8
:101480008F00AA308F0001308F000B08F9048B0009
:101490004B22200008002300403099002A309A0097
:1014A000023097000800310060308D0000308F005E
:0E14B0000030910006309300003092000800DA
:020000040001F9
:02000E00EC3FC5
:02001000FF3FB0
:020012009F3F0E
:02001400FF1FCC
:02001600FF3FAA
:00000001FF
