:020000040000FA
:020000000328D3
:040002000034003492
:0A00060080203120F001F1012000FC
:10001000F10F0B28F00A701E0F2880309806003070
:1000200014208030142008283038F20020008D126F
:10003000000023009A13160870080F397204960006
:10004000191C2028160871089600191C2528200064
:100050008D16080020008E1B02328E1708008E13AA
:10006000080020009601203097009801FF30910091
:1000700092011F3093003E000430CE000030C300D8
:10008000FF30B800E501E030C400B901CF01BA018A
:10009000C501D0010B088039F3000B087F398B00B4
:1000A0003D0055308F00AA308F008F011330C600FD
:1000B0001430C5003E001530A3001430A4003D00EC
:1000C0001230C9000E30C8000E30CA003E00173092
:1000D0009F0016309E003D0055308F00AA308F00E3
:1000E00001308F000B08F3048B00782020000800FB
:1000F0002300403099002A309A000230970008000F
:10010000310060308D0000308F00003091000630EB
:100110009300003092000800FA30A0009220A00B5B
:100120008E2808004230F400F40B942800000800E8
:020000040001F9
:02000E00EC3FC5
:02001000FF3FB0
:020012009F3F0E
:02001400FF1FCC
:02001600FF3FAA
:00000001FF
